:100000000C94A4000C94CC000C94CC000C94CC0068
:100010000C94CC000C94CC000C94CC000C94CC0030
:100020000C94CC000C94CC000C94CC000C94CC0020
:100030000C94CC000C94CC000C94CC000C94CC0010
:100040000C94940A0C94CC000C94260D0C94580D2E
:100050000C94CC000C94CC000C94CC000C94CC00F0
:100060000C9474090C94CC000C94CC000C94CC002F
:100070000C94CC000C94CC000C94CC000C94CC00D0
:100080000C94CC000C94CC000C94CC000C94CC00C0
:100090000C94CC000C94CC000C94CC000C94CC00B0
:1000A0000C94CC000C94CC000C94CC000C94CC00A0
:1000B0000C94CC00372E332E30002C200031373AF0
:1000C00034313A3232002C20004A756E203235200D
:1000D0003230323200436F6D70696C65643A2000D3
:1000E0000A0D0E09000302000004050800000000CC
:1000F00000000000000000000000000102040810E1
:100100002040800102040810200102040810204051
:1001100080400102040804040404040404040202EC
:10012000020202020303030303030202030505059F
:100130000500000000250028002B002E00005305BC
:10014000F107880D7805460811241FBECFEFD8E0CF
:10015000DEBFCDBF15E0A0E0B1E0E6E3F9E202C00A
:1001600005900D92A43FB107D9F727E0A4EFB5E0C1
:1001700001C01D92AA35B207E1F710E0C2EAD0E053
:1001800004C02197FE010E940512CF39D107C9F79B
:100190000E94A4110C948E140C940000089582E126
:1001A00096E00C942607CF93DF93D62FC42F69E6F1
:1001B00070E082E196E00E942F076D2F82E196E0C9
:1001C0000E94E6056C2F82E196E00E94E60582E13E
:1001D00096E00E94B40781E0DF91CF910895FC0181
:1001E000862F60E60E94B8119783478161E0CF01B6
:1001F0000C94D300FC01862F60E60E94B811968310
:10020000468162E0CF010C94D300FC01862F64E2AA
:100210000E94B8119583458163E0CF010C94D3000F
:100220006770FC016483448167E00C94D300FC0197
:10023000862F62E30E94B8119383438164E0CF016B
:100240000C94D300FC01862F63E10E94B8119283C5
:10025000428165E0CF010C94D300462FFC016183FD
:1002600066E00C94D300AF92CF92EF92FF920F937F
:100270001F93CF93DF93EC01F42E122F0E942D01D8
:100280006F2DCE010E942201612FCE010E94170125
:10029000602FCE010E9410016E2DCE010E9405013B
:1002A0006C2DCE010E94FA006A2DCE01DF91CF9114
:1002B0001F910F91FF90EF90CF90AF900C94EF00B3
:1002C000CF93C62F69E670E082E196E00E942F0787
:1002D0006C2F82E196E00E94E60560E082E196E004
:1002E0000E94360741E050E069E670E082E196E066
:1002F0000E94B10782E196E00E941D06CF91089509
:1003000060E00C94600161E00E9460018F770895C5
:1003100062E00E9460018F77089563E00E946001AF
:100320008F73089567E00E9460018770089564E00C
:100330000E9460018F73089565E00E9460018F71D3
:10034000089566E00C946001EF92FF920F931F9363
:10035000CF93DF9300D000D000D0CDB7DEB77C01C3
:100360008B0162EF75E00E94E30FC8010E94A101BA
:10037000D80111968C93119711966C9170E084E0DE
:10038000759567958A95E1F7C7010E941911F801E3
:1003900061816F7070E0C7010E9419116DE2C701A1
:1003A0000E940611C8010E949C01D80112968C93EC
:1003B000129712966C9170E094E0759567959A95F6
:1003C000E1F7C7010E941911F80162816F7070E0B6
:1003D000C7010E9419116DE2C7010E940611C801F0
:1003E0000E949701D80113968C93139713966C91E2
:1003F00070E024E0759567952A95E1F7C7010E94A2
:100400001911F80163816F7070E0C7010E94191122
:1004100060E2C7010E940611C8010E948D01D80147
:1004200015968C93159715966C9170E034E0759540
:1004300067953A95E1F7C7010E941911F8016581A6
:100440006F7070E0C7010E9419116AE3C7010E9432
:100450000611C8010E948801D80116968C93169740
:1004600016966C9170E044E0759567954A95E1F7B2
:10047000C7010E941911F80166816F7070E0C70111
:100480000E9419116AE3C7010E940611C8010E9467
:100490008301D80117968C93179717966C9170E08B
:1004A00054E0759567955A95E1F7C7010E941911B7
:1004B000F80167816F7070E0C7010E9419116EE248
:1004C000C7010E940611C8010E948001D801189638
:1004D0008C93189718966C9170E0E4E07595679589
:1004E000EA95E1F7C7010E941911F80160856F7064
:1004F00070E0C7010E94191160E2C7010E94061155
:1005000062EF75E0CE0101960E94E30FC8010E94E0
:100510009201D80114968C9314971496EC91E150A3
:10052000E73090F4F0E0E956FD4F0C9405129E027E
:10053000BC02BF02C202C502C802CB0261EA71E07E
:10054000CE0101960E94C410BE016F5F7F4FC701AC
:100550000E94FF10CE0101960E94740FC7012696DB
:100560000FB6F894DEBF0FBECDBFDF91CF911F91C4
:100570000F91FF90EF90089565EA71E0E1CF69EA8D
:1005800071E0DECF6DEA71E0DBCF61EB71E0D8CFD7
:1005900065EB71E0D5CF69EB71E0D2CF0F931F937C
:1005A000CF93DF93CDB7DEB762970FB6F894DEBF77
:1005B0000FBECDBF182F682F82E096E00E94600129
:1005C000082F40E1682FCE0101960E940210E12F12
:1005D000F0E0EE0FFF1FEF5DFE4F60817181CE01F5
:1005E0000D960E94E30FBE01635F7F4FCE01079619
:1005F0000E94AF106DEB71E0CE0107960E945C1176
:10060000BE016F5F7F4F0E944911BC0189EB96E0EC
:100610000E94480ECE0107960E94740FCE010D96DF
:100620000E94740FCE0101960E94740F802F629673
:100630000FB6F894DEBF0FBECDBFDF91CF911F91F3
:100640000F910895CF93DF93C82FD62F0E94CE022B
:100650004D2F6C2F82E096E00E94D30063EC71E096
:1006600089EB96E00E94230E8C2FDF91CF910C94A2
:10067000CE020F931F93CF93DF93CDB7DEB72C97A6
:100680000FB6F894DEBF0FBECDBF67ED71E089EB0A
:1006900096E00E945A0E08E210E040E1B801CE0157
:1006A00007960E942F1068EE71E0CE0101960E941D
:1006B000E30FBE01695F7F4FCE0101960E94491191
:1006C00060E972E00E945C11BC0189EB96E00E9437
:1006D000150ECE0101960E94740FCE0107960E945E
:1006E000740F802F0E94CE020F5F1F4F0F32110533
:1006F000A1F62C960FB6F894DEBF0FBECDBFDF91EA
:10070000CF911F910F9108950F931F93CF93DF9374
:10071000CDB7DEB72C970FB6F894DEBF0FBECDBFB6
:100720006DEE71E089EB96E00E945A0E10E000E059
:1007300040E1B801CE0107960E942F1068EE71E0EB
:10074000CE0101960E94E30FBE01695F7F4FCE018B
:1007500001960E94491160E972E00E945C11BC019F
:1007600089EB96E00E94150ECE0101960E94740F4F
:10077000CE0107960E94740F802F0E94CE020F5F59
:100780001F4F00341105A1F62C960FB6F894DEBF6A
:100790000FBECDBFDF91CF911F910F91089565EDF1
:1007A00070E089EB96E00E94F10D69EC70E089EB56
:1007B00096E00E94F10D66EC70E089EB96E00E94F5
:1007C000F10D6DEB70E089EB96E00E94F10D6AEBA4
:1007D00070E089EB96E00E94F10D64EB70E089EB2C
:1007E00096E00C94360E8AB185708AB908958BB163
:1007F00090E289278BB908951F93CF93DF93C8E2C6
:10080000D0E010E28BB181278BB962E370E080E029
:1008100090E00E940F0B2197A9F7DF91CF911F91D4
:1008200008958EE480937C0062E070E080E090E0C8
:100830000E940F0B80917A00806480937A008091EF
:100840007A0086FDFCCF8091780020917900322FCC
:10085000282F032E000C440B550B64EB7BE281E147
:1008600090E00E94E611CA01B901089582E096E085
:100870000E94CF0026E040E855E260E070E089EB9E
:1008800096E00E94D40C0E94F30380E10E94CE0205
:10089000682F6F7780E10E94220380E10E94CE02E0
:1008A00065E180E10E94220361EA8FE10E94220358
:1008B00068E18CE10E9422038FE10E94CE026DE983
:1008C0008FE10E94220369EA80E20E9422038DE107
:1008D0000E94CE026EE072E080FD02C063E272E030
:1008E00089EB96E00E945A0E0E9439030E9484030D
:1008F0000E94CF036EE372E089EB96E00C945A0EEF
:10090000AF92CF92EF920F9330E020E04BE150E0B6
:1009100066E071E08CEF95E00E947611809106010F
:10092000833709F0B6C080910701853609F0B1C060
:1009300080910801843709F0ACC0809109018F359E
:1009400009F0A7C080910A01823509F0A2C0809108
:100950000B01843509F09DC080910C01833409F0AE
:1009600098C069E572E089EB96E00E945A0E80918A
:100970000D018093FB0560910E016093FA05409193
:100980000F014093F905209110012093F805009183
:1009900011010093F705E0901201E092F605C09076
:1009A0001301C092F505A0901401A092F40582E015
:1009B00096E00E94330140E150E06091FB0589EB35
:1009C00096E00E94120F40E150E06091FA0589EB39
:1009D00096E00E94120F60E972E089EB96E00E94B7
:1009E000230E40E150E06091F90589EB96E00E940A
:1009F000120F60E972E089EB96E00E94230E40E15D
:100A000050E06091F80589EB96E00E94120F60E9D2
:100A100072E089EB96E00E94230E40E150E0609185
:100A2000F70589EB96E00E94120F60E972E089EB0E
:100A300096E00E94230E40E150E06091F60589EBBC
:100A400096E00E94120F60E972E089EB96E00E9446
:100A5000230E40E150E06091F50589EB96E00E949D
:100A6000120F60E972E089EB96E00E94230E40E1EC
:100A700050E06091F40589EB96E00E94190F6BE657
:100A800072E089EB96E00F91EF90CF90AF900C94CD
:100A9000230E68E772E089EB96E00F91EF90CF901C
:100AA000AF900C945A0E82E096E00E94CE0062EF66
:100AB00075E08CEF95E00E94E30FE6E0F1E08781BE
:100AC0008093FB0580858093FA0581858093F905E5
:100AD00082858093F80583858093F70584858093CC
:100AE000F60585858093F50586858093F405089540
:100AF0008CEF95E00C94740FCF93DF9300D000D06F
:100B000000D0CDB7DEB789EB96E00E94F40B892BBD
:100B1000E1F069EB76E0CE0101960E94590FBE012B
:100B20006F5F7F4F8CEF95E00E94B810CE01019669
:100B30000E94740F0E9480046CEF75E089EB96E0D0
:100B40000E94480E0E94FC03DECF68EE73E080E056
:100B500090E00E940F0B68E872E089EB96E00E943B
:100B6000230E0E941104AB01BC012AE030E089EBA6
:100B700096E00E94BD0E6DE872E089EB96E00E945F
:100B8000230E0E94F70362E972E089EB96E00E946F
:100B9000230E62E076E0CE0101960E94A401BE0120
:100BA0006F5F7F4F89EB96E00E94480ECE01019661
:100BB0000E94740F26960FB6F894DEBF0FBECDBF0D
:100BC000DF91CF91089590E080E00895CF93DF9377
:100BD0001F92CDB7DEB7FC01698387898823F9F0BE
:100BE0002689848595852817190654F081E090E0C0
:100BF0009383828390E080E00F90DF91CF910895FE
:100C00008981A58923893489A20FB32FB11D8C93C3
:100C100085898F5F858B868B81E090E0EDCF00A486
:100C2000F1A5E02D61E0CE0101960995F5CFFC011B
:100C300081899089891B990B0895FC01908981898C
:100C40002FEF3FEF981740F4A685B785A90FB11D88
:100C50002C9130E09F5F908BC9010895DC01509684
:100C6000EC91509751968C915197E81748F41E9645
:100C70008D919C91E80FF92FF11D808190E00895EE
:100C80008FEF9FEF08950895CF92DF92EF92FF923A
:100C90000F931F93CF93DF938C01CB017A01D8017F
:100CA00057962C915797222389F0EB016B01C40EC4
:100CB000D51ECC15DD0579F06991D801ED91FC9137
:100CC0000190F081E02DC8010995F3CF9896ED9140
:100CD000FC91642F0995C701DF91CF911F910F916E
:100CE000FF90EF90DF90CF9008952F923F924F9218
:100CF0005F926F927F928F929F92AF92BF92CF92AC
:100D0000DF92EF92FF920F931F93CF93DF93CDB7B4
:100D1000DEB760970FB6F894DEBF0FBECDBF3C01C3
:100D20002B015A8349833C832B838DA19EA19E83F3
:100D30008D83EFA1F8A5F887EF8389A59AA59A87F7
:100D40008987EBA5FCA5FC87EB872DA43EA48FA586
:100D500098A99E878D87E9A9FAA9F88BEF87F301F7
:100D60001382128288EE93E0A0E0B0E08483958342
:100D7000A683B78380ED95E0918380837587648730
:100D8000CB010E94B311F30197878687108A118ADD
:100D9000128AC2010E94B311F301948B838B158ACE
:100DA000168A178A89819A81958F848F8B819C817D
:100DB000978F868F11A300A3F3A2E2A2D5A2C4A2AB
:100DC000B7A2A6A291A680A68D819E8193A782A795
:100DD0008F81988595A784A789859A8597A786A7E7
:100DE000C101EB85FC8509958F859889ED85FE8588
:100DF00060960FB6F894DEBF0FBECDBFDF91CF91E6
:100E00001F910F91FF90EF90DF90CF90BF90AF9028
:100E10009F908F907F906F905F904F903F902F901A
:100E20000994CF93DF93EC0180ED95E0998388835B
:100E300061E070E08E859F850E94B51161E070E0F1
:100E40008B899C89DF91CF910C94B511FC01108A9C
:100E5000118A158A168A048CF58DE02D0994FC01FF
:100E600081E0878B628B158A168A08950F93CF9342
:100E7000DF93EC018B899C89EEA1FFA1062F21E075
:100E80004E89BC018A8909951D8A1E8A1F8ADF91B5
:100E9000CF910F9108958F929F92AF92BF92CF9270
:100EA000DF92EF92FF920F931F93CF93DF93EC01AA
:100EB000D62EF42E48015901EE2029F181E08F8BC6
:100EC0006A8B1D8A1E8A1E2D143008F013E0115003
:100ED000B0F028E0129FC0011124A501940104C0C4
:100EE00056954795379527958A95D2F7B901E881A8
:100EF000F9810190F081E02DCE010995E8CF60E005
:100F0000CE010E9436078C859D85F816190611F0D2
:100F10000CF0F82E6E857F85ECA1FDA12C2D4F2DB8
:100F20008D2D0995188A898BDF91CF911F910F9193
:100F3000FF90EF90DF90CF90BF90AF909F908F90F9
:100F40000895CF92EF920F931F93C22EE12C00E0F1
:100F500010E098010E944B071F910F91EF90CF90E6
:100F6000089521E00C94A10761E00C943607FC0180
:100F7000CA01228D338D232BD9F030892189321774
:100F8000B8F020E0422F50E0481759075CF4DB012D
:100F9000A40FB51F3C91A685B785A40FB51F3C9340
:100FA0002F5FF0CF108A818B028CF38DE02D099496
:100FB0000895AB01BC0182E196E00C94B707DC0117
:100FC0005896ED91FC915997309731F055961C92B7
:100FD000559756961C920994089582E196E00C94D8
:100FE000DF078F929F92AF92BF92CF92DF92EF92E4
:100FF000FF920F931F938DEE97E09F938F9387E55A
:1010000099E09F938F9389ED97E09F938F9382E56B
:1010100099E09F938F938EE699E09F938F9384E658
:1010200099E09F938F938CE599E09F938F938BE248
:10103000882E89E0982E94EDA92E98E0B92E2CE800
:10104000C22E28E0D22E39E7E32E38E0F32E05E752
:1010500018E028E638E04AE458E060E270E082E117
:1010600096E00E9475068DB79EB70E960FB6F8945F
:101070009EBF0FBE8DBF1F910F91FF90EF90DF902D
:10108000CF90BF90AF909F908F90089582E196E0AF
:101090000C9411071092AF0681E08093AD06109278
:1010A000AC0661E082E10E94C60B61E083E10E9430
:1010B000C60BE9EBF0E080818E7F808380818D7F9D
:1010C00080838DEF8093B80085E48093BC00089501
:1010D000ECEBF0E080818A7B808360E082E10E941B
:1010E000C60B60E083E10C94C60B880F8093BA00B6
:1010F00008959B01AC0160E472E48FE090E00E94EF
:10110000C411205131094109510956954795379528
:1011100027952093B8000895413208F043C090917C
:10112000AF069111FCCF91E09093AF062093AD06EE
:101130002FEF2093420610928706240F20938606F5
:101140009093AE069091AE06880F892B8093AE06E1
:101150008091AC06813009F51092AC068091AE0604
:101160008093BB008091BC0083FDF8CF85EC809319
:10117000BC008091AF068130E1F38091870684172F
:1011800010F440918706A8E8B6E0962FFB018E2F59
:10119000891B841720F0842F089585EEE8CF8D9168
:1011A0008193F5CF40E0F7CF0F93413208F04BC069
:1011B0009091AF069111FCCF92E09093AF0600930F
:1011C000AD069FEF909342061092870640938606E5
:1011D000362FA8E8B6E0FB019E2F931B941770F101
:1011E0001092AE069091AE06880F892B8093AE06C2
:1011F0008091AC06813029F51092AC068091AE0644
:101200008093BB008091BC0083FDF8CF85EC809378
:10121000BC00222321F08091AF068230D1F380916F
:1012200042068F3F91F080914206803281F080919A
:101230004206803371F084E00F91089591919D935F
:10124000CBCF85EEE4CF81E0F7CF80E0F5CF82E031
:10125000F3CF83E0F1CF20916406260F3327331FAD
:1012600021323105ECF42091AF06FC0190E080E0E2
:10127000243069F082E00895A09164062191AC01C8
:101280004A59594FA40FB52FB11D2C9301968617BB
:1012900098F380916406680F6093640680E0089577
:1012A00081E008959093A9068093A80608959093ED
:1012B000AB068093AA060895882321F085EC8093DD
:1012C000BC00089585E8FBCF85ED8093BC0080913C
:1012D000BC0084FDFCCF1092AF06089585EC80938E
:1012E000BC001092AF0608951F920F920FB60F9296
:1012F00011242F933F934F935F936F937F938F931B
:101300009F93AF93BF93EF93FF938091B900887F32
:10131000803609F44CC008F03FC0883209F4A8C0F8
:1013200018F5803109F49CC0B8F4882309F4F9C099
:10133000883009F495C0FF91EF91BF91AF919F91D3
:101340008F917F916F915F914F913F912F910F906E
:101350000FBE0F901F901895883109F489C0803214
:1013600051F78093420615C0803409F49EC048F4BA
:101370008033B9F38833F9F6809342060E946E09F0
:10138000DACF803509F485C0883509F496C08834F1
:1013900091F60E946409CFCF883909F48CC038F5E2
:1013A000883729F050F4883611F0803721F683E031
:1013B0008093AF061092430657C0883809F47BC06B
:1013C000803919F0803809F0B6CF80914306803219
:1013D00008F071C0E091430681E08E0F80934306D0
:1013E0008091BB00F0E0EC5BF94F80833DC0803B17
:1013F00039F0E0F4803A09F479C0883A09F09BCFDB
:1014000084E08093AF061092650610926406E09126
:10141000AA06F091AB0609958091640681110FC070
:1014200081E0809364061092660609C0803C09F44E
:1014300076C0883C09F473C0883B09F07CCFE0910A
:10144000650681E08E0F80936506F0E0EA59F94F5A
:1014500080818093BB00909165068091640629C0CD
:101460008091AE068093BB0085EC8093BC0063CF77
:101470009091870680918606981758F5E091870627
:1014800081E08E0F80938706F0E0E857F94F808166
:10149000E9CFE091870681E08E0F809387068091E7
:1014A000BB00F0E0E857F94F808390918706809168
:1014B00086069817C8F285E8D8CFE091870681E0C4
:1014C0008E0F809387068091BB00F0E0E857F94FBC
:1014D00080838091AD0681115CCF81E08093AC0662
:1014E00084EA8093BC001092AF0625CF0E946E095B
:1014F00080914306803230F4E0914306F0E0EC5BEB
:10150000F94F10826091430670E0E091A806F091D7
:10151000A90684E496E00995109243060CCF85EC69
:10152000E0CF1092420635CF1F920F920FB60F9266
:1015300011242F933F938F939F93AF93BF938091E9
:10154000B5069091B606A091B706B091B806309155
:10155000B40620E3230F2D3768F123EB230F4196C8
:10156000A11DB11D2093B4068093B5069093B606D5
:10157000A093B706B093B8068091B0069091B106DB
:10158000A091B206B091B3060196A11DB11D809342
:10159000B0069093B106A093B206B093B306BF9184
:1015A000AF919F918F913F912F910F900FBE0F9010
:1015B0001F9018954096A11DB11DD4CF2FB7F89458
:1015C0006091B5067091B6068091B7069091B80605
:1015D0002FBF08953FB7F8948091B0069091B1065F
:1015E000A091B206B091B30626B5A89B05C02F3FC7
:1015F00019F00196A11DB11D3FBFBA2FA92F982F39
:101600008827BC01CD01620F711D811D911D46E02F
:10161000660F771F881F991F4A95D1F708958F92FB
:101620009F92AF92BF92CF92DF92EF92FF926B01A7
:101630007C010E94EA0A4B015C01C114D104E1045F
:10164000F104E9F00E94B7110E94EA0A68197909C9
:101650008A099B09683E73408105910570F321E07A
:10166000C21AD108E108F10888EE880E83E0981EBE
:10167000A11CB11CC114D104E104F10429F7FF90AD
:10168000EF90DF90CF90BF90AF909F908F90089594
:10169000789484B5836084BD85B5836085BDEEE6AE
:1016A000F0E080818160808382E080938100E0E8C7
:1016B000F0E0808181608083E1EBF0E080818460F4
:1016C0008083E0EBF0E0808181608083E1E9F0E0FD
:1016D000808183608083E0E9F0E0808181608083A5
:1016E000E1EAF0E0808183608083E0EAF0E08081DD
:1016F0008160808383E880937A001092C10008950E
:1017000082508D3008F03EC0E82FF0E0E657F44FED
:101710000C940512BF0BC30B970B9D0BC20BC20B96
:10172000A10BA70BAB0BB10BC20BB50BBB0B809185
:1017300080008F77809380000895809180008F7D56
:10174000F9CF8091B0008F778093B0000895809199
:10175000B0008F7DF9CF809190008F7780939000BB
:101760000895809190008F7DF9CF8091A0008F77B0
:101770008093A00008958091A0008F7DF9CF84B55B
:101780008F7784BD089584B58F7DFBCF1F93CF9352
:10179000DF93282F30E0F901E052FF4F8491F901E7
:1017A000E550FF4FD491F901EA5EFE4FC491CC237E
:1017B000A9F0162F81110E94800BEC2FF0E0EE0FA4
:1017C000FF1FEF5CFE4FA591B4918FB7F894EC9199
:1017D000111108C0D095DE23DC938FBFDF91CF912C
:1017E0001F910895DE2BF8CFFC01918D228D892F5A
:1017F00090E0805C9F4F821B91098F739927089519
:10180000FC01918D828D981731F0828DE80FF11DCA
:10181000858D90E008958FEF9FEF0895FC01918DE5
:10182000828D981761F0A28DAE0FBF2FB11D5D960E
:101830008C91928D9F5F9F73928F90E008958FEFB0
:101840009FEF0895FC01538D448D252F30E0842FA8
:1018500090E0821B930B541710F0CF9608950197D8
:1018600008958EE79DE0892B49F080E090E0892B78
:1018700029F00E947E0D81110E94000080E090E01E
:10188000892B49F080E090E0892B29F00E9400002C
:1018900081110C9400000895FC01A48DA80FB92FAC
:1018A000B11DA35ABF4F2C91848D90E001968F7388
:1018B0009927848FA689B7892C93A089B1898C91A7
:1018C00080648C93938D848D981306C00288F3896D
:1018D000E02D80818F7D80830895CF93DF93EC018D
:1018E000888D8823B9F0AA89BB89E889F9898C9108
:1018F00085FD03C0808186FD0DC00FB607FCF7CFC4
:101900008C9185FFF2CF808185FFEDCFCE010E94C3
:101910004C0CE9CFDF91CF910895EF92FF920F9396
:101920001F93CF93DF93EC0181E0888F9B8D8C8D8B
:10193000981316C0E889F989808185FF11C0EE8966
:10194000FF896083E889F98980818064808381E0F0
:1019500090E0DF91CF911F910F91FF90EF9008954C
:10196000F62E0B8D10E00F5F1F4F0F731127E02E27
:101970008C8D8E110CC00FB607FCFACFE889F9895F
:10198000808185FFF5CFCE010E944C0CF1CFEB8D0D
:10199000EC0FFD2FF11DE35AFF4FF0820B8FEA8908
:1019A000FB8980818062D2CFCF92DF92EF92FF924B
:1019B0001F93CF93DF93EC016A017B01122F60E943
:1019C00070ED83E090E0A70196010E94C4112150C0
:1019D0003109410951095695479537952795E88969
:1019E000F98982E08083211580E1380798F0E88941
:1019F000F989108268E478EE81E090E0A701960111
:101A00000E94C41121503109410951095695479549
:101A100037952795EC85FD853083EE85FF852083FE
:101A2000188EEC89FD891083EA89FB898081886999
:101A30008083EA89FB8980818F7D8083DF91CF91CC
:101A40001F91FF90EF90DF90CF9008951F920F921B
:101A50000FB60F9211242F938F939F93EF93FF93C1
:101A6000E091C906F091CA068081E091CF06F0911D
:101A7000D00682FD1BC090818091D2068F5F8F734C
:101A80002091D306821741F0E091D206F0E0E754AE
:101A9000F94F958F8093D206FF91EF919F918F918F
:101AA0002F910F900FBE0F901F9018958081F4CF4B
:101AB0001F920F920FB60F9211242F933F934F93C3
:101AC0005F936F937F938F939F93AF93BF93EF93A6
:101AD000FF9389EB96E00E944C0CFF91EF91BF9130
:101AE000AF919F918F917F916F915F914F913F91B6
:101AF0002F910F900FBE0F901F90189589EB96E0D5
:101B00000E94F40B21E0892B09F420E0822F089534
:101B1000E9EBF6E01382128288EE93E0A0E0B0E0F9
:101B200084839583A683B78382EE95E09183808337
:101B300085EC90E09587848784EC90E09787868792
:101B400080EC90E0918B808B81EC90E0938B828B8A
:101B500082EC90E0958B848B86EC90E0978B868B63
:101B6000118E128E138E148E0895AF92BF92CF9263
:101B7000DF92EF92FF920F931F93CF93DF936C014D
:101B80007B018B01040F151FEB015E01AE18BF082E
:101B9000C017D10759F06991D601ED91FC910190E0
:101BA000F081E02DC6010995892B79F7C501DF91F8
:101BB000CF911F910F91FF90EF90DF90CF90BF904A
:101BC000AF900895FB0101900020E9F73197AF0134
:101BD000461B570BDC01ED91FC910280F381E02D57
:101BE0000994EF92FF920F931F93CF93DF938C0191
:101BF0007B01D0E0C0E0F701EC0FFD1F649166238C
:101C000061F0D801ED91FC910190F081E02DC801C7
:101C10000995892B11F02196EECFCE01DF91CF915E
:101C20001F910F91FF90EF900895DB0114964D9155
:101C30005C9115976D917C91DC01ED91FC91028096
:101C4000F381E02D09946115710511F00C94E20DFA
:101C500090E080E00895DC01ED91FC910190F0812D
:101C6000E02D099460EF75E00C94E20D0F931F9343
:101C7000CF93DF93EC010E94F10D8C01CE010E9405
:101C8000320E800F911FDF91CF911F910F91089518
:101C90000F931F93CF93DF93EC010E94150E8C01DD
:101CA000CE010E94320E800F911FDF91CF911F91C4
:101CB0000F9108950F931F93CF93DF938C01D0E082
:101CC000C0E06115710519F00E94E20DEC01C80138
:101CD0000E94320E8C0F9D1FDF91CF911F910F91AB
:101CE00008958F929F92AF92BF92EF92FF920F93BF
:101CF0001F93CF93DF93CDB7DEB7A1970FB6F894BC
:101D0000DEBF0FBECDBF7C01FA01CB0119A222308C
:101D100008F42AE08E010F5D1F4F822E912CB12C0A
:101D2000A12CBF01A50194010E94C411F901CA01AF
:101D30006A300CF5605DD8016E938D01232B242B46
:101D4000252B79F790E080E0109721F0BD01C701C5
:101D50000E94E20DA1960FB6F894DEBF0FBECDBF74
:101D6000DF91CF911F910F91FF90EF90BF90AF90B7
:101D70009F908F900895695CDECFCF92DF92EF92B3
:101D8000FF920F931F93CF93DF932115310581F4B9
:101D9000DC01ED91FC910190F081E02D642FDF9149
:101DA000CF911F910F91FF90EF90DF90CF9009940A
:101DB0002A30310501F52AE077FF1DC06A017B0159
:101DC000EC016DE20E942B0E8C0144275527BA01CD
:101DD0004C195D096E097F092AE0CE010E94710E3F
:101DE000800F911FDF91CF911F910F91FF90EF9086
:101DF000DF90CF900895DF91CF911F910F91FF90C9
:101E0000EF90DF90CF900C94710E2115310541F4C5
:101E1000DC01ED91FC910190F081E02D642F09949B
:101E20000C94710E9A01462F50E070E060E00C9423
:101E3000050F0F931F93CF93DF93EC010E94120FB6
:101E40008C01CE010E94320E800F911FDF91CF9145
:101E50001F910F9108950F931F93CF93DF93EC0180
:101E60000E94DE0A688779878A879B87E881F981E3
:101E70000284F385E02DCE01099597FF15C00E94DD
:101E8000DE0A088519852A853B85601B710B820B4C
:101E9000930B0C811D812E813F8160177107820792
:101EA000930720F38FEF9FEFDF91CF911F910F9159
:101EB00008950F931F93CF93DF93EC018B0162EF93
:101EC00075E00E94E30FC8010E942B0F97FD05C02B
:101ED000682FCE010E940611F6CFCE01DF91CF917F
:101EE0001F910F9108950895FC01808191810C94B8
:101EF000A712CF93DF93EC0188819981009711F0AD
:101F00000E94A712198218821D821C821B821A82CB
:101F1000DF91CF9108950F931F93CF93DF93EC013F
:101F20008B016F5F7F4F888199810E9430130097EA
:101F300051F0998388831B830A8381E0DF91CF91DD
:101F40001F910F91089580E0F9CFCF93DF93EC01BB
:101F500088819981892B49F08A819B81861797070F
:101F600020F081E0DF91CF910895CE010E948B0F88
:101F70008823C1F38C819D81892B99F7E881F981B0
:101F80001082EFCFEF92FF920F931F93CF93DF93C7
:101F9000EC017B018A01BA010E94A50F81110BC0DF
:101FA000CE010E94790FCE01DF91CF911F910F9149
:101FB000FF90EF9008951D830C83B701888199816C
:101FC0000E94F613F0CFFC0111821082138212825C
:101FD000158214826115710551F0FB0101900020FA
:101FE000E9F73197AF01461B570B0C94C20F0895C8
:101FF000FB0101900020E9F73197AF01461B570B19
:102000000C94C20F0F931F93CF93DF93CDB7DEB71E
:1020100029970FB6F894DEBF0FBECDBF8C01862F77
:10202000F80111821082138212821582148250E00C
:10203000BE016F5F7F4F90E00E942214BE016F5F70
:102040007F4FC8010E94F80F29960FB6F894DEBFA3
:102050000FBECDBFDF91CF911F910F9108950F93C8
:102060001F93CF93DF93CDB7DEB762970FB6F89487
:10207000DEBF0FBECDBF8C01CB01F80111821082F3
:10208000138212821582148250E0BE016F5F7F4F6F
:102090000E940C14BE016F5F7F4FC8010E94F80FB1
:1020A00062960FB6F894DEBF0FBECDBFDF91CF9121
:1020B0001F910F9108950F931F93CF93DF938C017E
:1020C000EB01FC0180819181009701F168817981A8
:1020D00061157105C9F023E73FE0232BA9F0428188
:1020E00053812C813D814217530770F00E94F613F3
:1020F0008C819D81F801958384831D821C82DF91F0
:10210000CF911F910F9108950E94A7128881998104
:10211000F801918380838A819B81938382838C8160
:102120009D8195838483198218821B821A82E5CF50
:10213000CF93DF93EC01FB018617970749F060818D
:1021400071816115710541F0448155810E94C20F72
:10215000CE01DF91CF9108950E94790FF9CFFC0154
:102160001182108213821282158214820C949810AC
:10217000CF93DF93EC018617970711F00E945B1055
:10218000CE01DF91CF910895CF93DF93EC016115DC
:10219000710531F00E94F80FCE01DF91CF910895C3
:1021A0000E94790FF9CFEF92FF920F931F93CF9375
:1021B000DF936115710541F480E0DF91CF911F91AC
:1021C0000F91FF90EF90089541155105B1F07B01FB
:1021D000EC010C811D81040F151FB8010E94A50F91
:1021E000882351F3288139818C819D81B701820F29
:1021F000931F0E94F6131D830C8381E0DECFFB0149
:1022000044815581608171810C94D310CF93DF9309
:1022100000D0CDB7DEB769831A8241E050E0BE013D
:102220006F5F7F4F0E94D3100F900F90DF91CF917F
:102230000895EF92FF920F931F93CF93DF93CDB743
:10224000DEB728970FB6F894DEBF0FBECDBF7C0176
:10225000CB014AE08E010F5F1F4FB8010E94171497
:10226000F80101900020E9F73197AF01401B510BB5
:10227000B801C7010E94D31028960FB6F894DEBFAC
:102280000FBECDBFDF91CF911F910F91FF90EF90C7
:102290000895CF93DF93EC01FB0144815581608168
:1022A00071810E94D310811103C0CE010E94790F69
:1022B000CE01DF91CF910895CF93DF93EC016115AB
:1022C000710539F4CE010E94790FCE01DF91CF91D3
:1022D0000895FB0101900020E9F73197AF01461BFB
:1022E000570B0E94D310882369F3EFCF0F931F93EE
:1022F000CF93DF934115510559F06115710541F0F8
:10230000FC01048115812017310738F0FB01108290
:10231000DF91CF911F910F91089541505109021BF8
:10232000130B4017510708F48A01EB01FC0160818F
:102330007181620F731FA801CE010E94FD13C00FAF
:10234000D11F1882E5CF08950E94480B0E94A31167
:102350000E943604C1E3DCE00E947C052097E1F393
:102360000E94310CF9CF0C940B120C94A712089513
:10237000991B79E004C0991F961708F0961B881FD7
:102380007A95C9F780950895A1E21A2EAA1BBB1B66
:10239000FD010DC0AA1FBB1FEE1FFF1FA217B30731
:1023A000E407F50720F0A21BB30BE40BF50B661F47
:1023B000771F881F991F1A9469F76095709580950B
:1023C00090959B01AC01BD01CF010895052E97FBAF
:1023D0001EF400940E94FD1157FD07D00E94C41105
:1023E00007FC03D04EF40C94FD11509540953095A8
:1023F00021953F4F4F4F5F4F089590958095709571
:1024000061957F4F8F4F9F4F0895EE0FFF1F0590EF
:10241000F491E02D09940F931F93CF93DF938230B3
:10242000910510F482E090E0E0915807F09159078F
:1024300030E020E0B0E0A0E0309799F421153105BC
:1024400009F44AC0281B390B24303105D8F58A819C
:102450009B816115710589F1FB0193838283FE01E4
:1024600011C0408151810281138148175907E0F062
:102470004817590799F4109761F012960C93129728
:1024800013961C933296CF01DF91CF911F910F913C
:1024900008950093580710935907F4CF211531057B
:1024A00051F04217530738F0A901DB019A01BD0131
:1024B000DF01F801C1CFEF01F9CF90935907809365
:1024C0005807CDCFFE01E20FF31F81939193225065
:1024D000310939832883D7CF209156073091570788
:1024E000232B41F4209102013091030130935707CF
:1024F00020935607209100013091010121153105EB
:1025000041F42DB73EB74091040150910501241BC1
:10251000350BE0915607F0915707E217F307A0F447
:102520002E1B3F0B2817390778F0AC014E5F5F4F29
:102530002417350748F04E0F5F1F509357074093FD
:102540005607819391939FCFF0E0E0E09CCFCF932B
:10255000DF930097E9F0FC01329713821282A09179
:102560005807B0915907ED0130E020E01097A1F431
:1025700020813181820F931F209156073091570798
:102580002817390709F061C0F0935707E093560701
:10259000DF91CF910895EA01CE17DF07E8F54A8170
:1025A0005B819E0141155105B1F7E901FB83EA8387
:1025B00049915991C40FD51FEC17FD0761F4808133
:1025C00091810296840F951FE90199838883828106
:1025D00093819B838A83F0E0E0E012968D919C9139
:1025E00013970097B9F52D913C911197CD01029663
:1025F000820F931F209156073091570728173907EC
:1026000039F6309751F51092590710925807B09348
:102610005707A0935607BCCFD383C2834081518113
:10262000840F951FC817D90761F44E5F5F4F8881EB
:102630009981480F591F518340838A819B819383DD
:1026400082832115310509F0B0CFF0935907E0934B
:1026500058079ECFFD01DC01C0CF13821282D7CF75
:10266000B0E0A0E0E6E3F3E10C9459148C0100978C
:1026700051F4CB010E940B128C01C801CDB7DEB71B
:10268000E0E10C947514FC01E60FF71F9C01225049
:102690003109E217F30708F49DC0D901CD91DC910F
:1026A0001197C617D70798F0C530D10530F3CE0182
:1026B00004978617970708F3C61BD70B2297C19379
:1026C000D1936D937C93CF010E94A712D6CF5B016B
:1026D000AC1ABD0A4C018C0E9D1EA0915807B091FA
:1026E0005907512C412CF12CE12C109731F5809198
:1026F0005607909157078815990509F05CC0461652
:10270000570608F058C08091000190910101009790
:1027100041F48DB79EB74091040150910501841B8F
:10272000950BE817F90708F055C0F0935707E093A9
:102730005607F90171836083A0CF8D919C91119709
:1027400012966C90129713967C901397A815B90562
:1027500059F56C0142E0C40ED11CCA14DB0420F10F
:10276000AC014A195B09DA011296159780F0628272
:10277000738251834083D9016D937C93E114F104FA
:1027800071F0D7011396FC93EE93129776CF2296B1
:102790008C0F9D1FF90191838083F301EFCFF0939C
:1027A0005907E093580769CF4816590608F42C01D9
:1027B0007D01D3019ACFCB010E940B127C010097BF
:1027C00049F0AE01B8010E94ED13C8010E94A712A2
:1027D000870153CF10E000E050CFFB01DC0102C0C5
:1027E00001900D9241505040D8F70895FB01DC0153
:1027F00001900D920020E1F70895FB01DC014150AA
:10280000504048F001900D920020C9F701C01D9280
:1028100041505040E0F708954532510520F44230D0
:1028200010F00C941714FB011082CB010895BB2704
:102830004A3031F4992322F4BDE2909581959F4F5F
:102840000C942E144532510520F4423010F00C94B3
:102850002D14FB011082CB010895BB27FB015527E6
:10286000AA27880F991FAA1FA41710F0A41B8395ED
:102870005051B9F7A05DAA3308F0A95DA193009764
:1028800079F7B111B1931192CB010C944714DC018B
:10289000FC01672F71917723E1F7329704C07C9197
:1028A0006D9370836291AE17BF07C8F308952F929E
:1028B0003F924F925F926F927F928F929F92AF92D0
:1028C000BF92CF92DF92EF92FF920F931F93CF931D
:1028D000DF93CDB7DEB7CA1BDB0B0FB6F894DEBFB4
:1028E0000FBECDBF09942A88398848885F846E84DA
:1028F0007D848C849B84AA84B984C884DF80EE8024
:10290000FD800C811B81AA81B981CE0FD11D0FB62C
:10291000F894DEBF0FBECDBFED01089510E0C2EA0E
:10292000D0E004C0FE010E9405122196C43AD107EE
:06293000C9F7F894FFCF87
:1029360000005A0780007878787878787878787800
:102946007878787878787878787878787878780A6F
:10295600009502A702B702C702D502E302F20200FF
:10296600030D0325033B035103650379038E03A17E
:1029760003B003C203D403E603F303030416042AD5
:102986000440045C0470048C049904AE04C204CBB5
:1029960004DF04F004C204C204C204C2040605161D
:1029A600052705340541054E055B05680575058255
:1029B600059105A005A005A005A005A005A005A0F8
:1029C60005A005A005A005A005A005A005A005B1C8
:1029D600054D6F6E00547565005765640054687543
:1029E60000467269005361740053756E00203D20E5
:1029F6003078007772697465642026207265616498
:102A0600206261636B20000A64756D7020414D3150
:102A16003830352049440A0052454720000A64757B
:102A26006D7020414D313830352072656769737499
:102A3600657220307830302D307833460A004F7377
:102A460063696C6C61746F72204D6F6465203D2004
:102A56005243004F7363696C6C61746F72204D6FE3
:102A66006465203D204372797374616C0A00414DA0
:102A760042495131383035205254432063686970D9
:102A86002074657374696E67007365745F5254438E
:102A96005F70726F63656475726500525443206996
:102AA60073207365742E0A00756E6B6E6F776E20D9
:102AB600636F6D6D616E64005643433D006D562C29
:102AC600200032300048554E44524554485F524526
:102AD600474953544552005345434F4E445F524570
:102AE600474953544552004D494E5554455F52454A
:102AF60047495354455200484F55525F524547493E
:102B06005354455200444154455F52454749535436
:102B16004552004D4F4E54485F5245474953544520
:102B26005200594541525F52454749535445520058
:102B36004441595F52454749535445520048554E02
:102B460044524554485F414C41524D5F52454749B6
:102B560053544552005345434F4E445F414C4152F6
:102B66004D5F5245474953544552004D494E5554C1
:102B7600455F414C41524D5F52454749535445527A
:102B860000484F55525F414C41524D5F52454749AF
:102B96005354455200444154455F414C41524D5FA8
:102BA6005245474953544552004D4F4E54485F4194
:102BB6004C41524D5F52454749535445520044419A
:102BC600595F414C41524D5F524547495354455216
:102BD6000053544154555F5245474953544552009A
:102BE600434F4E54524F4C315F524547495354451B
:102BF6005200434F4E54524F4C325F524547495351
:102C060054455200494E545F4D41534B5F52454720
:102C16004953544552005351575F524547495354FF
:102C260045520043414C5F58545F524547495354FF
:102C360045520043414C5F52435F48495F52454706
:102C460049535445520043414C5F52435F4C4F57E2
:102C56005F524547495354455200494E545F504FC1
:102C66004C41524954595F524547495354455200C5
:102C76005254435F414D313830355F434F4E5452C5
:102C86004F4C5F5245474953544552005254435F97
:102C9600414D313830355F5245474953544552000E
:102CA6005254435F414D313830355F494E4954499E
:102CB600414C5F5245474953544552005744545F6F
:102CC6005245474953544552004F53435F434F4E75
:102CD60054524F4C5F5245474953544552004F5347
:102CE600435F5354415455535F52454749535445E6
:102CF6005200524553455256454400434F4E4649AD
:102D0600475F4B45595F5245474953544552005416
:102D16005249434B4C455F5245474953544552002F
:102D2600425245465F434F4E54524F4C5F524547C1
:102D360049535445520041464354524C5F5245470D
:102D46004953544552004241544D4F44455F524504
:102D5600474953544552004944305F524547495309
:102D6600544552004944315F5245474953544552F0
:102D7600004944325F52454749535445520049443D
:102D8600335F5245474953544552004944345F52D4
:102D960045474953544552004944355F52454749D2
:102DA60053544552004944365F52454749535445AA
:102DB600520041535441545F52454749535445527A
:102DC600004F4354524C5F524547495354455200B5
:102DD600554E4B4E4F574E5F5245474953544552F9
:102DE60000455854454E53494F4E5F414444524561
:102DF60053535F5245474953544552000000000063
:102E0600E6054406E305430617061D062E060000E2
:102E160000008D0CB50D220C6D0CF40B0E0C000C85
:042E26000D0A000091
:00000001FF
